:1000000072C000009EC000009CC000009AC00000AA
:1000100098C0000096C0000094C0000092C000008C
:1000200090C000008EC000008CC000008AC000009C
:1000300088C0000086C0000084C0000082C00000AC
:1000400080C000007EC000007CC000007AC00000BC
:1000500078C0000076C0000074C00000DBC2000061
:1000600070C00000A1C2000076C200006AC000009B
:1000700068C0000066C0000064C0000062C00000EC
:1000800060C000005EC000005CC000005AC00000FC
:1000900058C0000056C0000054C0000052C000000C
:1000A00050C000004EC000004CC000004AC000001C
:1000B00048C0000046C0000044C0000042C000002C
:1000C00040C000003EC000003CC000003AC000003C
:1000D00038C0000036C0000034C0000032C000004C
:1000E00030C00000540311241FBECFEFD1E2DEBFA9
:1000F000CDBF00E00CBF23E0A0E3B2E001C01D9241
:10010000AE37B207E1F712E0A0E0B2E0EEE5FAE0C8
:1001100000E00BBF02C007900D92A033B107D9F7E2
:1001200010E0C3E7D0E000E005C021970109802F6F
:10013000FE0187D4C237D10780E00807B1F7F3D2B8
:100140008CC45ECFE9E9F2E0A089B18982E08C93AA
:10015000A485B5851C92A685B78580E18C93108E09
:10016000A489B58986E08C93A289B3898C9180613A
:100170008C93A289B3898C9188608C93A289B3896E
:100180008C9180688C930288F389E02D80818F7D2B
:1001900080830895CF92DF92EF92FF920F931F9387
:1001A0002FB7F894C0909502D0909602E0909702F5
:1001B000F09098022FBFDC01CB018C0D9D1DAE1D70
:1001C000BF1D4FB7F89400919502109196022091AF
:1001D0009702309198024FBF0C151D052E053F0563
:1001E00028F080179107A207B30758F71F910F91C6
:1001F000FF90EF90DF90CF900895CF92DF92EF9233
:10020000FF920F931F93CF93DF936C017A018B01C1
:10021000C0E0D0E0CE15DF0581F0D8016D918D01F1
:10022000D601ED91FC910190F081E02DC601199568
:10023000892B11F02196EECF7E01C701DF91CF917E
:100240001F910F91FF90EF90DF90CF900895089548
:1002500080E090E00895FC01538D448D252F30E01F
:10026000842F90E0821B930B541710F0CF960895C3
:1002700001970895FC01918D828D981761F0828D10
:10028000DF01A80FB11D5D968C91928D9F5F9F73CA
:10029000928F90E008958FEF9FEF0895FC01918D6C
:1002A000828D981731F0828DE80FF11D858D90E0D9
:1002B00008958FEF9FEF0895FC01918D228D892F76
:1002C00090E0805C9F4F821B91098F73992708955E
:1002D00089E992E0F1DF21E0892B09F420E0822F07
:1002E0000895FC01848DDF01A80FB11DA35ABF4FF3
:1002F0002C91848D90E001968F739927848FA68925
:10030000B7892C93A089B1898C91837080648C9378
:10031000938D848D981306C00288F389E02D808127
:100320008F7D80830895EF92FF920F931F93CF9359
:10033000DF93EC0181E0888F9B8D8C8D981305C035
:10034000E889F989808185FD25C0F62E0B8D10E0A6
:100350000F5F1F4F0F731127E02E8C8DE8120BC01B
:100360000FB607FCFACFE889F989808185FFF5CFC0
:10037000CE01B7DFF2CF8B8DFE01E80FF11DE35AFE
:10038000FF4FF0829FB7F8940B8FEA89FB89808139
:1003900080620AC09FB7F894EE89FF896083E8897C
:1003A000F98980818370806480839FBF81E090E0C1
:1003B000DF91CF911F910F91FF90EF900895CF9310
:1003C000DF93EC01888D8823C1F0EA89FB89808165
:1003D00085FD05C0A889B9898C9186FD0EC00FB630
:1003E00007FCF5CF808185FFF2CFA889B9898C9170
:1003F00085FFEDCFCE0175DFE8CFDF91CF91089576
:1004000080E090E0892B19F063DF811125C080E046
:1004100090E0892B41F080E090E0892B21F00E9450
:10042000000081111CC080E090E0892B41F080E049
:1004300090E0892B21F00E940000811113C080E020
:1004400090E0892BA1F080E090E0892B81F00E9460
:10045000000081110AC008950E940000D8CF0E94B8
:100460000000E1CF0E940000EACF0C940000089544
:100470003FB7F8948091310290913202A0913302FB
:10048000B091340226B5A89B05C02F3F19F0019604
:10049000A11DB11D3FBFBA2FA92F982F8827820F0A
:1004A000911DA11DB11DBC01CD0142E0660F771F5A
:1004B000881F991F4A95D1F708958F929F92AF9206
:1004C000BF92CF92DF92EF92FF926B017C01D0DF5F
:1004D0004B015C01C114D104E104F104E9F0C8DF6F
:1004E000DC01CB0188199909AA09BB09883E934010
:1004F000A105B10578F321E0C21AD108E108F1089D
:1005000088EE880E83E0981EA11CB11CC114D10492
:10051000E104F10421F7DECFFF90EF90DF90CF9060
:10052000BF90AF909F908F90089593D26115710501
:1005300079F0FB0101900020E9F73197AF01461BEC
:10054000570BDC01ED91FC910280F381E02D1994B1
:1005500080E090E008951F920F920FB60F92112441
:100560000BB60F922F933F934F935F936F937F93AD
:100570008F939F93AF93BF93EF93FF9389E992E09B
:10058000B0DEFF91EF91BF91AF919F918F917F91DD
:100590006F915F914F913F912F910F900BBE0F90F4
:1005A0000FBE0F901F9018951F920F920FB60F92CB
:1005B00011240BB60F922F938F939F93EF93FF937A
:1005C000E091A902F091AA028081E091AF02F0913E
:1005D000B00282FD12C090818091B2028F5F8F7352
:1005E0002091B302821751F0E091B202F0E0E75699
:1005F000FD4F958F8093B20201C08081FF91EF91F2
:100600009F918F912F910F900BBE0F900FBE0F9067
:100610001F9018951F920F920FB60F9211242F93CF
:100620003F938F939F93AF93BF9380919502909147
:100630009602A0919702B09198023091300223E087
:10064000230F2D3720F40196A11DB11D05C026E80A
:10065000230F0296A11DB11D2093300280939502B5
:1006600090939602A0939702B093980280913102E2
:1006700090913202A0913302B09134020196A11DF3
:10068000B11D8093310290933202A0933302B09354
:100690003402BF91AF919F918F913F912F910F9015
:1006A0000FBE0F901F901895E9E9F2E013821282B5
:1006B00088EE93E0A0E0B0E084839583A683B783BF
:1006C0008CE092E09183808385EC90E0958784872D
:1006D00084EC90E09787868780EC90E0918B808B0C
:1006E00081EC90E0938B828B82EC90E0958B848BF5
:1006F00086EC90E0978B868B118E128E138E148E63
:10070000E6E3F3E0168217821086118612861386BE
:100710001486158616861786108A118A128A138AFD
:10072000148A158A0895CF93DF93CDB7DEB7A197CA
:100730000FB6F894DEBF0FBECDBF789484B582604B
:1007400084BD84B5816084BD85B5826085BD85B575
:10075000816085BD80916E00816080936E001092F3
:10076000810080918100826080938100809181006E
:1007700081608093810080918000816080938000FF
:100780008091B10084608093B1008091B00081605D
:100790008093B0008091910082608093910080915D
:1007A000910081608093910080919000816080939E
:1007B00090008091A10082608093A1008091A100AF
:1007C00081608093A1008091A00081608093A0004F
:1007D00080912101826080932101809121018160BB
:1007E000809321018091200181608093200180917C
:1007F0007A00846080937A0080917A00826080938E
:100800007A0080917A00816080937A0080917A00EA
:10081000806880937A001092C10010927A0310923F
:100820007B0310927C0310927D0310923803109288
:10083000390310923A0310923B0368EB7BE080E0AF
:1008400090E0A8DC89E992E09093790380937803A3
:1008500079DC2FB7F8948091950290919602A0913F
:100860009702B09198022FBF809338039093390379
:10087000A0933A03B0933B036AE172E0809178035E
:100880009091790353DE6AE070E080E090E082DCD2
:1008900081E080934C0356DC25E9A22E22E0B22EA3
:1008A00035E0232E312C4AE0442E512C612C712C42
:1008B00095E3C92E92E0D92E860180E0882E82E051
:1008C000982EE12CF12CF40181914F01863308F030
:1008D000865390917B00282F2870977F922B9093BE
:1008E0007B008770806480937C0080917A008064B4
:1008F00080937A0080917A0086FDFCCF8091780009
:1009000020917900F801EE0DFF1D90E0922B91836C
:10091000808361E070E080E090E0CFDDFAE0EF0EF0
:10092000F11C80E5E816F10471F60E5F1F4FEFE34E
:10093000F2E0E017F10709F0C0CF05E812E0F80196
:100940008081918120E030E0D601A20FB31F4D914C
:100950005C91840F951F2E5F3F4F2A303105A1F720
:10096000B1015BD0619371938AE0C80ED11CAE16C1
:10097000BF0631F7F801219131918F0140E050E03D
:1009800019A27E01F1E2EF0EF11CCA01B901A30127
:10099000920121D0605DF70162937F01211531053D
:1009A0004105510591F7BF0189E992E0BFDD6CE295
:1009B00072E089E992E0BADDA016B106D9F669E2E3
:1009C00072E089E992E0B2DD6CEB72E080E090E0E9
:1009D00074DD16DD6DCFA1E21A2EAA1BBB1BFD0133
:1009E0000DC0AA1FBB1FEE1FFF1FA217B307E4070E
:1009F000F50720F0A21BB30BE40BF50B661F771F66
:100A0000881F991F1A9469F7609570958095909545
:100A10009B01AC01BD01CF010895AA1BBB1B51E195
:100A200007C0AA1FBB1FA617B70710F0A61BB70B5E
:100A3000881F991F5A95A9F780959095BC01CD0103
:100A40000895EE0FFF1F881F8BBF0790F691E02DD2
:0E0A5000199481E090E0F89400C0F894FFCF74
:100A5E0008090A0B0C0D0E0F000000009301FD009B
:100A6E002B01DF015C013A014E01564D4450565F99
:100A7E00317C315F564D4450560D0A002C2000003B
:00000001FF
